{
  "address": "0xCb7e268b8e11744ab14b7C88f2A061393C130b8E",
  "abi": [
    {
      "inputs": [
        {
          "internalType": "address",
          "name": "marketArg",
          "type": "address"
        },
        {
          "internalType": "address",
          "name": "wethArg",
          "type": "address"
        },
        {
          "internalType": "string",
          "name": "nativeTokenSymbol",
          "type": "string"
        }
      ],
      "stateMutability": "nonpayable",
      "type": "constructor"
    },
    {
      "anonymous": false,
      "inputs": [
        {
          "indexed": true,
          "internalType": "address",
          "name": "owner",
          "type": "address"
        },
        {
          "indexed": true,
          "internalType": "address",
          "name": "spender",
          "type": "address"
        },
        {
          "indexed": false,
          "internalType": "uint256",
          "name": "value",
          "type": "uint256"
        }
      ],
      "name": "Approval",
      "type": "event"
    },
    {
      "anonymous": false,
      "inputs": [
        {
          "indexed": true,
          "internalType": "address",
          "name": "caller",
          "type": "address"
        },
        {
          "indexed": true,
          "internalType": "address",
          "name": "owner",
          "type": "address"
        },
        {
          "indexed": false,
          "internalType": "uint256",
          "name": "assets",
          "type": "uint256"
        },
        {
          "indexed": false,
          "internalType": "uint256",
          "name": "shares",
          "type": "uint256"
        }
      ],
      "name": "Deposit",
      "type": "event"
    },
    {
      "anonymous": false,
      "inputs": [
        {
          "indexed": true,
          "internalType": "address",
          "name": "from",
          "type": "address"
        },
        {
          "indexed": true,
          "internalType": "address",
          "name": "to",
          "type": "address"
        },
        {
          "indexed": false,
          "internalType": "uint256",
          "name": "value",
          "type": "uint256"
        }
      ],
      "name": "Transfer",
      "type": "event"
    },
    {
      "anonymous": false,
      "inputs": [
        {
          "indexed": true,
          "internalType": "address",
          "name": "caller",
          "type": "address"
        },
        {
          "indexed": true,
          "internalType": "address",
          "name": "receiver",
          "type": "address"
        },
        {
          "indexed": true,
          "internalType": "address",
          "name": "owner",
          "type": "address"
        },
        {
          "indexed": false,
          "internalType": "uint256",
          "name": "assets",
          "type": "uint256"
        },
        {
          "indexed": false,
          "internalType": "uint256",
          "name": "shares",
          "type": "uint256"
        }
      ],
      "name": "Withdraw",
      "type": "event"
    },
    {
      "inputs": [],
      "name": "DOMAIN_SEPARATOR",
      "outputs": [
        {
          "internalType": "bytes32",
          "name": "",
          "type": "bytes32"
        }
      ],
      "stateMutability": "view",
      "type": "function"
    },
    {
      "inputs": [
        {
          "internalType": "address",
          "name": "owner",
          "type": "address"
        },
        {
          "internalType": "address",
          "name": "spender",
          "type": "address"
        }
      ],
      "name": "allowance",
      "outputs": [
        {
          "internalType": "uint256",
          "name": "",
          "type": "uint256"
        }
      ],
      "stateMutability": "view",
      "type": "function"
    },
    {
      "inputs": [
        {
          "internalType": "address",
          "name": "spender",
          "type": "address"
        },
        {
          "internalType": "uint256",
          "name": "amount",
          "type": "uint256"
        }
      ],
      "name": "approve",
      "outputs": [
        {
          "internalType": "bool",
          "name": "",
          "type": "bool"
        }
      ],
      "stateMutability": "nonpayable",
      "type": "function"
    },
    {
      "inputs": [],
      "name": "asset",
      "outputs": [
        {
          "internalType": "address",
          "name": "",
          "type": "address"
        }
      ],
      "stateMutability": "view",
      "type": "function"
    },
    {
      "inputs": [
        {
          "internalType": "address",
          "name": "account",
          "type": "address"
        }
      ],
      "name": "balanceOf",
      "outputs": [
        {
          "internalType": "uint256",
          "name": "",
          "type": "uint256"
        }
      ],
      "stateMutability": "view",
      "type": "function"
    },
    {
      "inputs": [
        {
          "internalType": "uint256",
          "name": "shares",
          "type": "uint256"
        }
      ],
      "name": "convertToAssets",
      "outputs": [
        {
          "internalType": "uint256",
          "name": "assets",
          "type": "uint256"
        }
      ],
      "stateMutability": "view",
      "type": "function"
    },
    {
      "inputs": [
        {
          "internalType": "uint256",
          "name": "assets",
          "type": "uint256"
        }
      ],
      "name": "convertToShares",
      "outputs": [
        {
          "internalType": "uint256",
          "name": "shares",
          "type": "uint256"
        }
      ],
      "stateMutability": "view",
      "type": "function"
    },
    {
      "inputs": [],
      "name": "decimals",
      "outputs": [
        {
          "internalType": "uint8",
          "name": "",
          "type": "uint8"
        }
      ],
      "stateMutability": "view",
      "type": "function"
    },
    {
      "inputs": [
        {
          "internalType": "address",
          "name": "spender",
          "type": "address"
        },
        {
          "internalType": "uint256",
          "name": "subtractedValue",
          "type": "uint256"
        }
      ],
      "name": "decreaseAllowance",
      "outputs": [
        {
          "internalType": "bool",
          "name": "",
          "type": "bool"
        }
      ],
      "stateMutability": "nonpayable",
      "type": "function"
    },
    {
      "inputs": [
        {
          "internalType": "uint256",
          "name": "assets",
          "type": "uint256"
        },
        {
          "internalType": "address",
          "name": "receiver",
          "type": "address"
        }
      ],
      "name": "deposit",
      "outputs": [
        {
          "internalType": "uint256",
          "name": "shares",
          "type": "uint256"
        }
      ],
      "stateMutability": "nonpayable",
      "type": "function"
    },
    {
      "inputs": [
        {
          "internalType": "address",
          "name": "receiver",
          "type": "address"
        }
      ],
      "name": "depositETH",
      "outputs": [
        {
          "internalType": "uint256",
          "name": "",
          "type": "uint256"
        }
      ],
      "stateMutability": "payable",
      "type": "function"
    },
    {
      "inputs": [],
      "name": "exchange",
      "outputs": [
        {
          "internalType": "address",
          "name": "",
          "type": "address"
        }
      ],
      "stateMutability": "view",
      "type": "function"
    },
    {
      "inputs": [
        {
          "internalType": "address",
          "name": "spender",
          "type": "address"
        },
        {
          "internalType": "uint256",
          "name": "addedValue",
          "type": "uint256"
        }
      ],
      "name": "increaseAllowance",
      "outputs": [
        {
          "internalType": "bool",
          "name": "",
          "type": "bool"
        }
      ],
      "stateMutability": "nonpayable",
      "type": "function"
    },
    {
      "inputs": [],
      "name": "market",
      "outputs": [
        {
          "internalType": "address",
          "name": "",
          "type": "address"
        }
      ],
      "stateMutability": "view",
      "type": "function"
    },
    {
      "inputs": [
        {
          "internalType": "address",
          "name": "",
          "type": "address"
        }
      ],
      "name": "maxDeposit",
      "outputs": [
        {
          "internalType": "uint256",
          "name": "maxAssets",
          "type": "uint256"
        }
      ],
      "stateMutability": "view",
      "type": "function"
    },
    {
      "inputs": [
        {
          "internalType": "address",
          "name": "",
          "type": "address"
        }
      ],
      "name": "maxMint",
      "outputs": [
        {
          "internalType": "uint256",
          "name": "maxShares",
          "type": "uint256"
        }
      ],
      "stateMutability": "view",
      "type": "function"
    },
    {
      "inputs": [
        {
          "internalType": "address",
          "name": "owner",
          "type": "address"
        }
      ],
      "name": "maxRedeem",
      "outputs": [
        {
          "internalType": "uint256",
          "name": "maxShares",
          "type": "uint256"
        }
      ],
      "stateMutability": "view",
      "type": "function"
    },
    {
      "inputs": [
        {
          "internalType": "address",
          "name": "owner",
          "type": "address"
        }
      ],
      "name": "maxWithdraw",
      "outputs": [
        {
          "internalType": "uint256",
          "name": "maxAssets",
          "type": "uint256"
        }
      ],
      "stateMutability": "view",
      "type": "function"
    },
    {
      "inputs": [
        {
          "internalType": "uint256",
          "name": "shares",
          "type": "uint256"
        },
        {
          "internalType": "address",
          "name": "receiver",
          "type": "address"
        }
      ],
      "name": "mint",
      "outputs": [
        {
          "internalType": "uint256",
          "name": "assets",
          "type": "uint256"
        }
      ],
      "stateMutability": "nonpayable",
      "type": "function"
    },
    {
      "inputs": [
        {
          "internalType": "uint256",
          "name": "shares",
          "type": "uint256"
        },
        {
          "internalType": "address",
          "name": "receiver",
          "type": "address"
        }
      ],
      "name": "mintETH",
      "outputs": [
        {
          "internalType": "uint256",
          "name": "assets",
          "type": "uint256"
        }
      ],
      "stateMutability": "payable",
      "type": "function"
    },
    {
      "inputs": [
        {
          "internalType": "bytes[]",
          "name": "data",
          "type": "bytes[]"
        }
      ],
      "name": "multicall",
      "outputs": [
        {
          "internalType": "bytes[]",
          "name": "results",
          "type": "bytes[]"
        }
      ],
      "stateMutability": "nonpayable",
      "type": "function"
    },
    {
      "inputs": [],
      "name": "name",
      "outputs": [
        {
          "internalType": "string",
          "name": "",
          "type": "string"
        }
      ],
      "stateMutability": "view",
      "type": "function"
    },
    {
      "inputs": [
        {
          "internalType": "address",
          "name": "owner",
          "type": "address"
        }
      ],
      "name": "nonces",
      "outputs": [
        {
          "internalType": "uint256",
          "name": "",
          "type": "uint256"
        }
      ],
      "stateMutability": "view",
      "type": "function"
    },
    {
      "inputs": [
        {
          "internalType": "address",
          "name": "owner",
          "type": "address"
        },
        {
          "internalType": "address",
          "name": "spender",
          "type": "address"
        },
        {
          "internalType": "uint256",
          "name": "value",
          "type": "uint256"
        },
        {
          "internalType": "uint256",
          "name": "deadline",
          "type": "uint256"
        },
        {
          "internalType": "uint8",
          "name": "v",
          "type": "uint8"
        },
        {
          "internalType": "bytes32",
          "name": "r",
          "type": "bytes32"
        },
        {
          "internalType": "bytes32",
          "name": "s",
          "type": "bytes32"
        }
      ],
      "name": "permit",
      "outputs": [],
      "stateMutability": "nonpayable",
      "type": "function"
    },
    {
      "inputs": [
        {
          "internalType": "uint256",
          "name": "assets",
          "type": "uint256"
        }
      ],
      "name": "previewDeposit",
      "outputs": [
        {
          "internalType": "uint256",
          "name": "shares",
          "type": "uint256"
        }
      ],
      "stateMutability": "view",
      "type": "function"
    },
    {
      "inputs": [
        {
          "internalType": "uint256",
          "name": "shares",
          "type": "uint256"
        }
      ],
      "name": "previewMint",
      "outputs": [
        {
          "internalType": "uint256",
          "name": "assets",
          "type": "uint256"
        }
      ],
      "stateMutability": "view",
      "type": "function"
    },
    {
      "inputs": [
        {
          "internalType": "uint256",
          "name": "shares",
          "type": "uint256"
        }
      ],
      "name": "previewRedeem",
      "outputs": [
        {
          "internalType": "uint256",
          "name": "assets",
          "type": "uint256"
        }
      ],
      "stateMutability": "view",
      "type": "function"
    },
    {
      "inputs": [
        {
          "internalType": "uint256",
          "name": "assets",
          "type": "uint256"
        }
      ],
      "name": "previewWithdraw",
      "outputs": [
        {
          "internalType": "uint256",
          "name": "shares",
          "type": "uint256"
        }
      ],
      "stateMutability": "view",
      "type": "function"
    },
    {
      "inputs": [
        {
          "internalType": "uint256",
          "name": "shares",
          "type": "uint256"
        },
        {
          "internalType": "address",
          "name": "receiver",
          "type": "address"
        },
        {
          "internalType": "address",
          "name": "owner",
          "type": "address"
        }
      ],
      "name": "redeem",
      "outputs": [
        {
          "internalType": "uint256",
          "name": "assets",
          "type": "uint256"
        }
      ],
      "stateMutability": "nonpayable",
      "type": "function"
    },
    {
      "inputs": [
        {
          "internalType": "uint256",
          "name": "shares",
          "type": "uint256"
        },
        {
          "internalType": "address payable",
          "name": "receiver",
          "type": "address"
        },
        {
          "internalType": "address",
          "name": "owner",
          "type": "address"
        }
      ],
      "name": "redeemETH",
      "outputs": [
        {
          "internalType": "uint256",
          "name": "assets",
          "type": "uint256"
        }
      ],
      "stateMutability": "nonpayable",
      "type": "function"
    },
    {
      "inputs": [],
      "name": "symbol",
      "outputs": [
        {
          "internalType": "string",
          "name": "",
          "type": "string"
        }
      ],
      "stateMutability": "view",
      "type": "function"
    },
    {
      "inputs": [],
      "name": "totalAssets",
      "outputs": [
        {
          "internalType": "uint256",
          "name": "totalManagedAssets",
          "type": "uint256"
        }
      ],
      "stateMutability": "view",
      "type": "function"
    },
    {
      "inputs": [],
      "name": "totalSupply",
      "outputs": [
        {
          "internalType": "uint256",
          "name": "",
          "type": "uint256"
        }
      ],
      "stateMutability": "view",
      "type": "function"
    },
    {
      "inputs": [
        {
          "internalType": "address",
          "name": "recipient",
          "type": "address"
        },
        {
          "internalType": "uint256",
          "name": "amount",
          "type": "uint256"
        }
      ],
      "name": "transfer",
      "outputs": [
        {
          "internalType": "bool",
          "name": "",
          "type": "bool"
        }
      ],
      "stateMutability": "nonpayable",
      "type": "function"
    },
    {
      "inputs": [
        {
          "internalType": "address",
          "name": "sender",
          "type": "address"
        },
        {
          "internalType": "address",
          "name": "recipient",
          "type": "address"
        },
        {
          "internalType": "uint256",
          "name": "amount",
          "type": "uint256"
        }
      ],
      "name": "transferFrom",
      "outputs": [
        {
          "internalType": "bool",
          "name": "",
          "type": "bool"
        }
      ],
      "stateMutability": "nonpayable",
      "type": "function"
    },
    {
      "inputs": [],
      "name": "weth",
      "outputs": [
        {
          "internalType": "address",
          "name": "",
          "type": "address"
        }
      ],
      "stateMutability": "view",
      "type": "function"
    },
    {
      "inputs": [
        {
          "internalType": "uint256",
          "name": "assets",
          "type": "uint256"
        },
        {
          "internalType": "address",
          "name": "receiver",
          "type": "address"
        },
        {
          "internalType": "address",
          "name": "owner",
          "type": "address"
        }
      ],
      "name": "withdraw",
      "outputs": [
        {
          "internalType": "uint256",
          "name": "shares",
          "type": "uint256"
        }
      ],
      "stateMutability": "nonpayable",
      "type": "function"
    },
    {
      "inputs": [
        {
          "internalType": "uint256",
          "name": "assets",
          "type": "uint256"
        },
        {
          "internalType": "address payable",
          "name": "receiver",
          "type": "address"
        },
        {
          "internalType": "address",
          "name": "owner",
          "type": "address"
        }
      ],
      "name": "withdrawETH",
      "outputs": [
        {
          "internalType": "uint256",
          "name": "shares",
          "type": "uint256"
        }
      ],
      "stateMutability": "nonpayable",
      "type": "function"
    },
    {
      "stateMutability": "payable",
      "type": "receive"
    }
  ],
  "transactionHash": "0x3b44a83bc0efd893b12d8bde5db1d4d1659cada4f4e39a853e844a76d2cd60ca",
  "args": [
    "0xc93b56fa0B4c62E4b04d62d1A94Fb6F9A7518e99",
    "0xebbc3452cc911591e4f18f3b36727df45d6bd1f9",
    "ETH"
  ],
  "numDeployments": 2,
  "solcInputHash": "643f7e48e073dd0ec16ce75dd8ae8f68",
  "bytecode": "0x6101c06040523480156200001257600080fd5b5060405162003fd138038062003fd18339810160408190526200003591620006e1565b826040518060400160405280600d81526020016c02832b9382222ac102637b7339609d1b815250604051806040016040528060028152602001611c1b60f21b81525083856200008c8585846200041060201b60201c565b6040805180820190915260018152603160f81b60208201528190620000b388888762000410565b620000c089888862000410565b60016000556004620000d38382620007d6565b506005620000e28282620007d6565b5050825160208085019190912083518483012060e08290526101008190524660a0818152604080517f8b73c3c69bb8fe3d512ecc4cf759cc79239f7b179b0ffacaa9a75d522b39400f81880181905281830187905260608201869052608082019490945230818401528151808203909301835260c0019052805194019390932091935091906080523060c0526101205250506040805163697b932d60e11b81529051600094506001600160a01b038a16935063d2f7265a925060048083019260209291908290030181865afa158015620001c0573d6000803e3d6000fd5b505050506040513d601f19601f82011682018060405250810190620001e69190620008a2565b90506000816001600160a01b0316637b9e618d6040518163ffffffff1660e01b8152600401602060405180830381865afa15801562000229573d6000803e3d6000fd5b505050506040513d601f19601f820116820180604052508101906200024f9190620008a2565b90506000601260ff16836001600160a01b0316633fd1e2bd6040518163ffffffff1660e01b8152600401602060405180830381865afa15801562000297573d6000803e3d6000fd5b505050506040513d601f19601f82011682018060405250810190620002bd9190620008c7565b60ff1614620003135760405162461bcd60e51b815260206004820152601760248201527f5054425f433a20696e76616c696420646563696d616c7300000000000000000060448201526064015b60405180910390fd5b6001600160a01b03821662000382576001600160a01b0384166200037a5760405162461bcd60e51b815260206004820152601760248201527f5054425f433a207765746820697320726571756972656400000000000000000060448201526064016200030a565b5082620003de565b6001600160a01b03841615620003db5760405162461bcd60e51b815260206004820152601b60248201527f5054425f433a20776574682063616e206e6f742062652075736564000000000060448201526064016200030a565b50805b6001600160a01b039081166101405296871661016052509085166101a052909316610180525062000975945050505050565b60606000846001600160a01b031663d2f7265a6040518163ffffffff1660e01b8152600401602060405180830381865afa15801562000453573d6000803e3d6000fd5b505050506040513d601f19601f82011682018060405250810190620004799190620008a2565b6001600160a01b0316637b9e618d6040518163ffffffff1660e01b8152600401602060405180830381865afa158015620004b7573d6000803e3d6000fd5b505050506040513d601f19601f82011682018060405250810190620004dd9190620008a2565b905083856001600160a01b03166395d89b416040518163ffffffff1660e01b8152600401600060405180830381865afa1580156200051f573d6000803e3d6000fd5b505050506040513d6000823e601f3d908101601f19168201604052620005499190810190620008ec565b6001600160a01b03831615620005c857826001600160a01b03166395d89b416040518163ffffffff1660e01b8152600401600060405180830381865afa15801562000598573d6000803e3d6000fd5b505050506040513d6000823e601f3d908101601f19168201604052620005c29190810190620008ec565b620005ca565b845b604051602001620005de939291906200092c565b6040516020818303038152906040529150509392505050565b80516001600160a01b03811681146200060f57600080fd5b919050565b634e487b7160e01b600052604160045260246000fd5b60005b83811015620006475781810151838201526020016200062d565b50506000910152565b600082601f8301126200066257600080fd5b81516001600160401b03808211156200067f576200067f62000614565b604051601f8301601f19908116603f01168101908282118183101715620006aa57620006aa62000614565b81604052838152866020858801011115620006c457600080fd5b620006d78460208301602089016200062a565b9695505050505050565b600080600060608486031215620006f757600080fd5b6200070284620005f7565b92506200071260208501620005f7565b60408501519092506001600160401b038111156200072f57600080fd5b6200073d8682870162000650565b9150509250925092565b600181811c908216806200075c57607f821691505b6020821081036200077d57634e487b7160e01b600052602260045260246000fd5b50919050565b601f821115620007d157600081815260208120601f850160051c81016020861015620007ac5750805b601f850160051c820191505b81811015620007cd57828155600101620007b8565b5050505b505050565b81516001600160401b03811115620007f257620007f262000614565b6200080a8162000803845462000747565b8462000783565b602080601f831160018114620008425760008415620008295750858301515b600019600386901b1c1916600185901b178555620007cd565b600085815260208120601f198616915b82811015620008735788860151825594840194600190910190840162000852565b5085821015620008925787850151600019600388901b60f8161c191681555b5050505050600190811b01905550565b600060208284031215620008b557600080fd5b620008c082620005f7565b9392505050565b600060208284031215620008da57600080fd5b815160ff81168114620008c057600080fd5b600060208284031215620008ff57600080fd5b81516001600160401b038111156200091657600080fd5b620009248482850162000650565b949350505050565b60008451620009408184602089016200062a565b845190830190620009568183602089016200062a565b84519101906200096b8183602088016200062a565b0195945050505050565b60805160a05160c05160e05161010051610120516101405161016051610180516101a05161351562000abc600039600081816103e601528181610a0a01528181610ae001528181610bb00152818161104a0152818161193a0152818161197d01528181611b5501528181611b8401526123440152600081816106b90152818161077f0152818161133c015281816116d10152818161175a01528181611cd7015281816123870152818161243b015281816124b90152612752015260008181610510015281816108c101528181610f5a0152818161138501528181611651015281816117a30152611d2001526000818161037a015281816111ce0152818161191101528181611bfc01528181611c3a01526123b70152600061157a015260006115c9015260006115a4015260006114fd015260006115270152600061155101526135156000f3fe6080604052600436106102295760003560e01c80637ecebe0011610123578063ba087652116100ab578063d2f7265a1161006f578063d2f7265a146106a7578063d505accf146106db578063d905777e146106fd578063dd62ed3e1461071d578063ef8b30f71461073d57600080fd5b8063ba08765214610614578063c63d75b614610634578063c6e6f59214610654578063ce96cb7714610674578063cfc13da61461069457600080fd5b8063a457c2d7116100f2578063a457c2d714610567578063a9059cbb14610587578063ac9650d8146105a7578063b3d7f6b9146105d4578063b460af94146105f457600080fd5b80637ecebe00146104de57806380f55605146104fe57806394bf804d1461053257806395d89b411461055257600080fd5b80633644e515116101b15780634cdad506116101755780634cdad5061461042857806367da598e146104485780636b6f5133146104685780636e553f651461048857806370a08231146104a857600080fd5b80633644e5151461035357806338d52e0f1461036857806339509351146103b45780633fc8cef3146103d4578063402d267d1461040857600080fd5b80630a28a477116101f85780630a28a477146102cf57806318160ddd146102ef57806323b872dd146103045780632d2da80614610324578063313ce5671461033757600080fd5b806301e1d1141461023557806306fdde031461025d57806307a2d13a1461027f578063095ea7b31461029f57600080fd5b3661023057005b600080fd5b34801561024157600080fd5b5061024a61075d565b6040519081526020015b60405180910390f35b34801561026957600080fd5b5061027261080b565b6040516102549190612e95565b34801561028b57600080fd5b5061024a61029a366004612ea8565b61089d565b3480156102ab57600080fd5b506102bf6102ba366004612ed6565b610964565b6040519015158152602001610254565b3480156102db57600080fd5b5061024a6102ea366004612ea8565b6109ae565b3480156102fb57600080fd5b5060035461024a565b34801561031057600080fd5b506102bf61031f366004612f02565b6109c3565b61024a610332366004612f43565b610a06565b34801561034357600080fd5b5060405160128152602001610254565b34801561035f57600080fd5b5061024a610a7f565b34801561037457600080fd5b5061039c7f000000000000000000000000000000000000000000000000000000000000000081565b6040516001600160a01b039091168152602001610254565b3480156103c057600080fd5b506102bf6103cf366004612ed6565b610a8e565b3480156103e057600080fd5b5061039c7f000000000000000000000000000000000000000000000000000000000000000081565b34801561041457600080fd5b5061024a610423366004612f43565b610ac1565b34801561043457600080fd5b5061024a610443366004612ea8565b610ace565b34801561045457600080fd5b5061024a610463366004612f60565b610adc565b34801561047457600080fd5b5061024a610483366004612f60565b610bac565b34801561049457600080fd5b5061024a6104a3366004612fa2565b610c6b565b3480156104b457600080fd5b5061024a6104c3366004612f43565b6001600160a01b031660009081526001602052604090205490565b3480156104ea57600080fd5b5061024a6104f9366004612f43565b610ca7565b34801561050a57600080fd5b5061039c7f000000000000000000000000000000000000000000000000000000000000000081565b34801561053e57600080fd5b5061024a61054d366004612fa2565b610cc5565b34801561055e57600080fd5b50610272610d0d565b34801561057357600080fd5b506102bf610582366004612ed6565b610d1c565b34801561059357600080fd5b506102bf6105a2366004612ed6565b610d4f565b3480156105b357600080fd5b506105c76105c2366004612fd2565b610d82565b6040516102549190613047565b3480156105e057600080fd5b5061024a6105ef366004612ea8565b610e77565b34801561060057600080fd5b5061024a61060f366004612f60565b610e85565b34801561062057600080fd5b5061024a61062f366004612f60565b610ed6565b34801561064057600080fd5b5061024a61064f366004612f43565b610f23565b34801561066057600080fd5b5061024a61066f366004612ea8565b610f31565b34801561068057600080fd5b5061024a61068f366004612f43565b610fec565b61024a6106a2366004612fa2565b611046565b3480156106b357600080fd5b5061039c7f000000000000000000000000000000000000000000000000000000000000000081565b3480156106e757600080fd5b506106fb6106f63660046130b8565b61111a565b005b34801561070957600080fd5b5061024a610718366004612f43565b61115e565b34801561072957600080fd5b5061024a610738366004613129565b61118c565b34801561074957600080fd5b5061024a610758366004612ea8565b6111b7565b604051630674fa4160e01b815230600482015260009081906001600160a01b037f00000000000000000000000000000000000000000000000000000000000000001690630674fa4190602401602060405180830381865afa1580156107c6573d6000803e3d6000fd5b505050506040513d601f19601f820116820180604052508101906107ea9190613157565b905060008112610802576107fd816111c6565b610805565b60005b91505090565b60606004805461081a90613170565b80601f016020809104026020016040519081016040528092919081815260200182805461084690613170565b80156108935780601f1061086857610100808354040283529160200191610893565b820191906000526020600020905b81548152906001019060200180831161087657829003601f168201915b5050505050905090565b6000806108a960035490565b9050806000036109525761094b6108bf846111c6565b7f00000000000000000000000000000000000000000000000000000000000000006001600160a01b0316638ee8fe5d6040518163ffffffff1660e01b8152600401602060405180830381865afa15801561091d573d6000803e3d6000fd5b505050506040513d601f19601f820116820180604052508101906109419190613157565b600160601b611265565b9392505050565b61094b8361095e61075d565b83611265565b60006002600054036109915760405162461bcd60e51b8152600401610988906131a4565b60405180910390fd5b60026000556109a08383611313565b90505b600160005592915050565b60006109bd600160008461132b565b92915050565b60006002600054036109e75760405162461bcd60e51b8152600401610988906131a4565b60026000556109f784848461145c565b90505b60016000559392505050565b60007f00000000000000000000000000000000000000000000000000000000000000006001600160a01b0316610a4e5760405162461bcd60e51b8152600401610988906131db565b600260005403610a705760405162461bcd60e51b8152600401610988906131a4565b60026000556109a33483611480565b6000610a896114f0565b905090565b6000600260005403610ab25760405162461bcd60e51b8152600401610988906131a4565b60026000556109a08383611617565b60006109bd600080611639565b60006109bd6001808461132b565b60007f00000000000000000000000000000000000000000000000000000000000000006001600160a01b0316610b245760405162461bcd60e51b8152600401610988906131db565b600260005403610b465760405162461bcd60e51b8152600401610988906131a4565b6002600081905550610b5b6001600086611749565b9050610b698284838761188b565b6040516001600160a01b0384169085156108fc029086906000818181858888f19350505050158015610b9f573d6000803e3d6000fd5b5060016000559392505050565b60007f00000000000000000000000000000000000000000000000000000000000000006001600160a01b0316610bf45760405162461bcd60e51b8152600401610988906131db565b600260005403610c165760405162461bcd60e51b8152600401610988906131a4565b6002600055610c2760018086611749565b9050610c358284868461188b565b6040516001600160a01b0384169082156108fc029083906000818181858888f19350505050158015610b9f573d6000803e3d6000fd5b6000600260005403610c8f5760405162461bcd60e51b8152600401610988906131a4565b6002600055610c9d8361190a565b6109a08383611480565b6001600160a01b0381166000908152600660205260408120546109bd565b6000600260005403610ce95760405162461bcd60e51b8152600401610988906131a4565b6002600055610cf783610e77565b9050610d028161190a565b6109a38184846119e7565b60606005805461081a90613170565b6000600260005403610d405760405162461bcd60e51b8152600401610988906131a4565b60026000556109a08383611aa5565b6000600260005403610d735760405162461bcd60e51b8152600401610988906131a4565b60026000556109a08383611b20565b60608167ffffffffffffffff811115610d9d57610d9d613212565b604051908082528060200260200182016040528015610dd057816020015b6060815260200190600190039081610dbb5790505b50905060005b82811015610e7057610e4030858584818110610df457610df4613228565b9050602002810190610e06919061323e565b8080601f016020809104026020016040519081016040528093929190818152602001838380828437600092019190915250611b2e92505050565b828281518110610e5257610e52613228565b60200260200101819052508080610e68906132a2565b915050610dd6565b5092915050565b60006109bd6000808461132b565b6000600260005403610ea95760405162461bcd60e51b8152600401610988906131a4565b6002600081905550610ebe6001600086611749565b9050610ecc8284838761188b565b6109fa8385611b53565b6000600260005403610efa5760405162461bcd60e51b8152600401610988906131a4565b6002600055610f0b60018086611749565b9050610f198284868461188b565b6109fa8382611b53565b60006109bd60006001611639565b600080610f3d60035490565b905080600003610fdf5761094b610f5384611c26565b600160601b7f00000000000000000000000000000000000000000000000000000000000000006001600160a01b0316638ee8fe5d6040518163ffffffff1660e01b8152600401602060405180830381865afa158015610fb6573d6000803e3d6000fd5b505050506040513d601f19601f82011682018060405250810190610fda9190613157565b611265565b61094b8382610fda61075d565b6000610ff9600180611639565b9050600080611028600180611023876001600160a01b031660009081526001602052604090205490565b611cc5565b91509150811561103f5761103c8382611dfa565b92505b5050919050565b60007f00000000000000000000000000000000000000000000000000000000000000006001600160a01b031661108e5760405162461bcd60e51b8152600401610988906131db565b6002600054036110b05760405162461bcd60e51b8152600401610988906131a4565b60026000556110be83610e77565b905060006110cc3483611e10565b9050801561110357604051339082156108fc029083906000818181858888f19350505050158015611101573d6000803e3d6000fd5b505b61110e8285856119e7565b50600160005592915050565b60026000540361113c5760405162461bcd60e51b8152600401610988906131a4565b600260005561115087878787878787611e1c565b505060016000555050505050565b6001600160a01b0381166000908152600160205260408120546109bd9061118760016000611639565b611dfa565b6001600160a01b03918216600090815260026020908152604080832093909416825291909152205490565b60006109bd600060018461132b565b60006109bd827f00000000000000000000000000000000000000000000000000000000000000006001600160a01b031663313ce5676040518163ffffffff1660e01b8152600401602060405180830381865afa15801561122a573d6000803e3d6000fd5b505050506040513d601f19601f8201168201806040525081019061124e91906132bb565b61125990600a6133bc565b610fda6012600a6133bc565b600080806000198587098587029250828110838203039150508060000361129f57838281611295576112956133cb565b049250505061094b565b8084116112ab57600080fd5b600084868809600260036001881981018916988990049182028318808302840302808302840302808302840302808302840302808302840302918202909203026000889003889004909101858311909403939093029303949094049190911702949350505050565b600033611321818585611f80565b5060019392505050565b60006113388484846120a4565b91507f00000000000000000000000000000000000000000000000000000000000000006001600160a01b031663cffe85566040518060e00160405280306001600160a01b031681526020017f00000000000000000000000000000000000000000000000000000000000000006001600160a01b03168152602001306001600160a01b0316815260200187151581526020018615158152602001858152602001866113e4576000196113e7565b60005b8152506040518263ffffffff1660e01b815260040161140691906133e1565b602060405180830381865afa158015611423573d6000803e3d6000fd5b505050506040513d601f19601f820116820180604052508101906114479190613157565b90506114548484836120d5565b949350505050565b60003361146a8582856120fa565b611475858585612174565b506001949350505050565b600061148b83612342565b6114986000600185611749565b90506114a48282612523565b60408051848152602081018390526001600160a01b0384169133917fdcbc1c05240f31ff3ad067ef1ee35ce4997762752e3a095284754544f4c709d7910160405180910390a392915050565b6000306001600160a01b037f00000000000000000000000000000000000000000000000000000000000000001614801561154957507f000000000000000000000000000000000000000000000000000000000000000046145b1561157357507f000000000000000000000000000000000000000000000000000000000000000090565b50604080517f00000000000000000000000000000000000000000000000000000000000000006020808301919091527f0000000000000000000000000000000000000000000000000000000000000000828401527f000000000000000000000000000000000000000000000000000000000000000060608301524660808301523060a0808401919091528351808403909101815260c0909201909252805191012090565b60003361132181858561162a838361118c565b611634919061343e565b611f80565b6040805160a081018252308082526001600160a01b037f000000000000000000000000000000000000000000000000000000000000000081166020840190815283850192835286151560608501908152861515608086019081529551630b59d9a760e21b81529451831660048601529051821660248501529151811660448401529051151560648301529151151560848201526000917f00000000000000000000000000000000000000000000000000000000000000001690632d67669c9060a401602060405180830381865afa158015611718573d6000803e3d6000fd5b505050506040513d601f19601f8201168201806040525081019061173c9190613157565b905061094b8383836120d5565b60006117568484846120a4565b91507f00000000000000000000000000000000000000000000000000000000000000006001600160a01b031663e671be176040518060e00160405280306001600160a01b031681526020017f00000000000000000000000000000000000000000000000000000000000000006001600160a01b0316815260200187151581526020018615158152602001858152602001866117f3576000196117f6565b60005b8152600019602091820152604080516001600160e01b031960e086901b16815283516001600160a01b039081166004830152928401519092166024830152820151151560448201526060820151151560648201526080820151608482015260a082015160a482015260c09091015160c482015260e4016020604051808303816000875af1158015611423573d6000803e3d6000fd5b336001600160a01b038516146118a6576118a68433846120fa565b6118b08483612602565b6118b981612750565b60408051828152602081018490526001600160a01b03808716929086169133917ffbde797d201c681b91056529119e0b02407c7bb96a4a2c75c01fc9667232c8db910160405180910390a450505050565b33306119387f00000000000000000000000000000000000000000000000000000000000000008383866127a6565b7f00000000000000000000000000000000000000000000000000000000000000006001600160a01b0316156119e257604051632e1a7d4d60e01b8152600481018490527f00000000000000000000000000000000000000000000000000000000000000006001600160a01b031690632e1a7d4d90602401600060405180830381600087803b1580156119c957600080fd5b505af11580156119dd573d6000803e3d6000fd5b505050505b505050565b6119f083612342565b60006119fe60008085611749565b9050838114611a4f5760405162461bcd60e51b815260206004820152601960248201527f504c545f4d3a20286e657665722072656163682920414e4655000000000000006044820152606401610988565b611a598284612523565b60408051858152602081018590526001600160a01b0384169133917fdcbc1c05240f31ff3ad067ef1ee35ce4997762752e3a095284754544f4c709d7910160405180910390a350505050565b60003381611ab3828661118c565b905083811015611b135760405162461bcd60e51b815260206004820152602560248201527f45524332303a2064656372656173656420616c6c6f77616e63652062656c6f77604482015264207a65726f60d81b6064820152608401610988565b6114758286868403611f80565b600033611321818585612174565b606061094b83836040518060600160405280602781526020016134b960279139612811565b7f00000000000000000000000000000000000000000000000000000000000000006001600160a01b031615611bf7577f00000000000000000000000000000000000000000000000000000000000000006001600160a01b031663d0e30db0826040518263ffffffff1660e01b81526004016000604051808303818588803b158015611bdd57600080fd5b505af1158015611bf1573d6000803e3d6000fd5b50505050505b611c227f000000000000000000000000000000000000000000000000000000000000000083836128ee565b5050565b60006109bd82611c386012600a6133bc565b7f00000000000000000000000000000000000000000000000000000000000000006001600160a01b031663313ce5676040518163ffffffff1660e01b8152600401602060405180830381865afa158015611c96573d6000803e3d6000fd5b505050506040513d601f19601f82011682018060405250810190611cba91906132bb565b610fda90600a6133bc565b600080611cd38585856120a4565b92507f00000000000000000000000000000000000000000000000000000000000000006001600160a01b031663cffe85566040518060e00160405280306001600160a01b031681526020017f00000000000000000000000000000000000000000000000000000000000000006001600160a01b03168152602001306001600160a01b031681526020018815158152602001871515815260200186815260200187611d7f57600019611d82565b60005b8152506040518263ffffffff1660e01b8152600401611da191906133e1565b602060405180830381865afa925050508015611dda575060408051601f3d908101601f19168201909252611dd791810190613157565b60015b15611df25760019250611dee8686836120d5565b9150505b935093915050565b6000818310611e09578161094b565b5090919050565b600061094b8284613451565b83421115611e6c5760405162461bcd60e51b815260206004820152601d60248201527f45524332305065726d69743a206578706972656420646561646c696e650000006044820152606401610988565b60007f6e71edae12b1b97f4d1f60370fef10105fa2faae0126114a169c64845d6126c9888888611e9b8c61291e565b6040805160208101969096526001600160a01b0394851690860152929091166060840152608083015260a082015260c0810186905260e0016040516020818303038152906040528051906020012090506000611ef682612946565b90506000611f0682878787612994565b9050896001600160a01b0316816001600160a01b031614611f695760405162461bcd60e51b815260206004820152601e60248201527f45524332305065726d69743a20696e76616c6964207369676e617475726500006044820152606401610988565b611f748a8a8a611f80565b50505050505050505050565b6001600160a01b038316611fe25760405162461bcd60e51b8152602060048201526024808201527f45524332303a20617070726f76652066726f6d20746865207a65726f206164646044820152637265737360e01b6064820152608401610988565b6001600160a01b0382166120435760405162461bcd60e51b815260206004820152602260248201527f45524332303a20617070726f766520746f20746865207a65726f206164647265604482015261737360f01b6064820152608401610988565b6001600160a01b0383811660008181526002602090815260408083209487168084529482529182902085905590518481527f8c5be1e5ebec7d5bd14f71427d1e84f3dd0314c0f7b2291e5b200ac8c7c3b925910160405180910390a3505050565b600083156120c657826120c1576120ba82611c26565b905061094b565b610e70565b8215610e70576120ba82611c26565b600083156120ec5782156120c1576120ba826111c6565b82610e70576120ba826111c6565b6000612106848461118c565b9050600019811461216e57818110156121615760405162461bcd60e51b815260206004820152601d60248201527f45524332303a20696e73756666696369656e7420616c6c6f77616e63650000006044820152606401610988565b61216e8484848403611f80565b50505050565b6001600160a01b0383166121d85760405162461bcd60e51b815260206004820152602560248201527f45524332303a207472616e736665722066726f6d20746865207a65726f206164604482015264647265737360d81b6064820152608401610988565b6001600160a01b03821661223a5760405162461bcd60e51b815260206004820152602360248201527f45524332303a207472616e7366657220746f20746865207a65726f206164647260448201526265737360e81b6064820152608401610988565b6001600160a01b038316600090815260016020526040902054818110156122b25760405162461bcd60e51b815260206004820152602660248201527f45524332303a207472616e7366657220616d6f756e7420657863656564732062604482015265616c616e636560d01b6064820152608401610988565b6001600160a01b038085166000908152600160205260408082208585039055918516815290812080548492906122e990849061343e565b92505081905550826001600160a01b0316846001600160a01b03167fddf252ad1be2c89b69c2b068fc378daa952ba7f163c4a11628f55a4df523b3ef8460405161233591815260200190565b60405180910390a361216e565b7f00000000000000000000000000000000000000000000000000000000000000006001600160a01b03166124a35760405163095ea7b360e01b81526001600160a01b037f00000000000000000000000000000000000000000000000000000000000000008116600483015260001960248301527f0000000000000000000000000000000000000000000000000000000000000000169063095ea7b3906044016020604051808303816000875af1158015612400573d6000803e3d6000fd5b505050506040513d601f19601f820116820180604052508101906124249190613464565b5060405163b6b55f2560e01b8152600481018290527f00000000000000000000000000000000000000000000000000000000000000006001600160a01b03169063b6b55f25906024015b600060405180830381600087803b15801561248857600080fd5b505af115801561249c573d6000803e3d6000fd5b5050505050565b60405163b6b55f2560e01b8152600060048201527f00000000000000000000000000000000000000000000000000000000000000006001600160a01b03169063b6b55f259083906024016000604051808303818588803b15801561250657600080fd5b505af115801561251a573d6000803e3d6000fd5b50505050505b50565b6001600160a01b0382166125795760405162461bcd60e51b815260206004820152601f60248201527f45524332303a206d696e7420746f20746865207a65726f2061646472657373006044820152606401610988565b806003600082825461258b919061343e565b90915550506001600160a01b038216600090815260016020526040812080548392906125b890849061343e565b90915550506040518181526001600160a01b038316906000907fddf252ad1be2c89b69c2b068fc378daa952ba7f163c4a11628f55a4df523b3ef9060200160405180910390a35050565b6001600160a01b0382166126625760405162461bcd60e51b815260206004820152602160248201527f45524332303a206275726e2066726f6d20746865207a65726f206164647265736044820152607360f81b6064820152608401610988565b6001600160a01b038216600090815260016020526040902054818110156126d65760405162461bcd60e51b815260206004820152602260248201527f45524332303a206275726e20616d6f756e7420657863656564732062616c616e604482015261636560f01b6064820152608401610988565b6001600160a01b0383166000908152600160205260408120838303905560038054849290612705908490613451565b90915550506040518281526000906001600160a01b038516907fddf252ad1be2c89b69c2b068fc378daa952ba7f163c4a11628f55a4df523b3ef9060200160405180910390a3505050565b7f00000000000000000000000000000000000000000000000000000000000000006001600160a01b0316632e1a7d4d61278883611c26565b6040518263ffffffff1660e01b815260040161246e91815260200190565b6040516001600160a01b038085166024830152831660448201526064810182905261216e9085906323b872dd60e01b906084015b60408051601f198184030181529190526020810180516001600160e01b03166001600160e01b0319909316929092179091526129bc565b60606001600160a01b0384163b6128795760405162461bcd60e51b815260206004820152602660248201527f416464726573733a2064656c65676174652063616c6c20746f206e6f6e2d636f6044820152651b9d1c9858dd60d21b6064820152608401610988565b600080856001600160a01b0316856040516128949190613486565b600060405180830381855af49150503d80600081146128cf576040519150601f19603f3d011682016040523d82523d6000602084013e6128d4565b606091505b50915091506128e4828286612a8e565b9695505050505050565b6040516001600160a01b0383166024820152604481018290526119e290849063a9059cbb60e01b906064016127da565b6001600160a01b03811660009081526006602052604090208054600181018255905b50919050565b60006109bd6129536114f0565b8360405161190160f01b6020820152602281018390526042810182905260009060620160405160208183030381529060405280519060200120905092915050565b60008060006129a587878787612ac7565b915091506129b281612bb4565b5095945050505050565b6000612a11826040518060400160405280602081526020017f5361666545524332303a206c6f772d6c6576656c2063616c6c206661696c6564815250856001600160a01b0316612d6a9092919063ffffffff16565b8051909150156119e25780806020019051810190612a2f9190613464565b6119e25760405162461bcd60e51b815260206004820152602a60248201527f5361666545524332303a204552433230206f7065726174696f6e20646964206e6044820152691bdd081cdd58d8d9595960b21b6064820152608401610988565b60608315612a9d57508161094b565b825115612aad5782518084602001fd5b8160405162461bcd60e51b81526004016109889190612e95565b6000807f7fffffffffffffffffffffffffffffff5d576e7357a4501ddfe92f46681b20a0831115612afe5750600090506003612bab565b8460ff16601b14158015612b1657508460ff16601c14155b15612b275750600090506004612bab565b6040805160008082526020820180845289905260ff881692820192909252606081018690526080810185905260019060a0016020604051602081039080840390855afa158015612b7b573d6000803e3d6000fd5b5050604051601f1901519150506001600160a01b038116612ba457600060019250925050612bab565b9150600090505b94509492505050565b6000816004811115612bc857612bc86134a2565b03612bd05750565b6001816004811115612be457612be46134a2565b03612c315760405162461bcd60e51b815260206004820152601860248201527f45434453413a20696e76616c6964207369676e617475726500000000000000006044820152606401610988565b6002816004811115612c4557612c456134a2565b03612c925760405162461bcd60e51b815260206004820152601f60248201527f45434453413a20696e76616c6964207369676e6174757265206c656e677468006044820152606401610988565b6003816004811115612ca657612ca66134a2565b03612cfe5760405162461bcd60e51b815260206004820152602260248201527f45434453413a20696e76616c6964207369676e6174757265202773272076616c604482015261756560f01b6064820152608401610988565b6004816004811115612d1257612d126134a2565b036125205760405162461bcd60e51b815260206004820152602260248201527f45434453413a20696e76616c6964207369676e6174757265202776272076616c604482015261756560f01b6064820152608401610988565b60606114548484600085856001600160a01b0385163b612dcc5760405162461bcd60e51b815260206004820152601d60248201527f416464726573733a2063616c6c20746f206e6f6e2d636f6e74726163740000006044820152606401610988565b600080866001600160a01b03168587604051612de89190613486565b60006040518083038185875af1925050503d8060008114612e25576040519150601f19603f3d011682016040523d82523d6000602084013e612e2a565b606091505b5091509150612e3a828286612a8e565b979650505050505050565b60005b83811015612e60578181015183820152602001612e48565b50506000910152565b60008151808452612e81816020860160208601612e45565b601f01601f19169290920160200192915050565b60208152600061094b6020830184612e69565b600060208284031215612eba57600080fd5b5035919050565b6001600160a01b038116811461252057600080fd5b60008060408385031215612ee957600080fd5b8235612ef481612ec1565b946020939093013593505050565b600080600060608486031215612f1757600080fd5b8335612f2281612ec1565b92506020840135612f3281612ec1565b929592945050506040919091013590565b600060208284031215612f5557600080fd5b813561094b81612ec1565b600080600060608486031215612f7557600080fd5b833592506020840135612f8781612ec1565b91506040840135612f9781612ec1565b809150509250925092565b60008060408385031215612fb557600080fd5b823591506020830135612fc781612ec1565b809150509250929050565b60008060208385031215612fe557600080fd5b823567ffffffffffffffff80821115612ffd57600080fd5b818501915085601f83011261301157600080fd5b81358181111561302057600080fd5b8660208260051b850101111561303557600080fd5b60209290920196919550909350505050565b6000602080830181845280855180835260408601915060408160051b870101925083870160005b8281101561309c57603f1988860301845261308a858351612e69565b9450928501929085019060010161306e565b5092979650505050505050565b60ff8116811461252057600080fd5b600080600080600080600060e0888a0312156130d357600080fd5b87356130de81612ec1565b965060208801356130ee81612ec1565b95506040880135945060608801359350608088013561310c816130a9565b9699959850939692959460a0840135945060c09093013592915050565b6000806040838503121561313c57600080fd5b823561314781612ec1565b91506020830135612fc781612ec1565b60006020828403121561316957600080fd5b5051919050565b600181811c9082168061318457607f821691505b60208210810361294057634e487b7160e01b600052602260045260246000fd5b6020808252601f908201527f5265656e7472616e637947756172643a207265656e7472616e742063616c6c00604082015260600190565b6020808252601d908201527f5054425f4f573a2077657468206973206e6f7420617661696c61626c65000000604082015260600190565b634e487b7160e01b600052604160045260246000fd5b634e487b7160e01b600052603260045260246000fd5b6000808335601e1984360301811261325557600080fd5b83018035915067ffffffffffffffff82111561327057600080fd5b60200191503681900382131561328557600080fd5b9250929050565b634e487b7160e01b600052601160045260246000fd5b6000600182016132b4576132b461328c565b5060010190565b6000602082840312156132cd57600080fd5b815161094b816130a9565b600181815b808511156133135781600019048211156132f9576132f961328c565b8085161561330657918102915b93841c93908002906132dd565b509250929050565b60008261332a575060016109bd565b81613337575060006109bd565b816001811461334d576002811461335757613373565b60019150506109bd565b60ff8411156133685761336861328c565b50506001821b6109bd565b5060208310610133831016604e8410600b8410161715613396575081810a6109bd565b6133a083836132d8565b80600019048211156133b4576133b461328c565b029392505050565b600061094b60ff84168361331b565b634e487b7160e01b600052601260045260246000fd5b81516001600160a01b0390811682526020808401518216908301526040808401519091169082015260608083015115159082015260808083015115159082015260a0828101519082015260c0918201519181019190915260e00190565b808201808211156109bd576109bd61328c565b818103818111156109bd576109bd61328c565b60006020828403121561347657600080fd5b8151801515811461094b57600080fd5b60008251613498818460208701612e45565b9190910192915050565b634e487b7160e01b600052602160045260246000fdfe416464726573733a206c6f772d6c6576656c2064656c65676174652063616c6c206661696c6564a2646970667358221220210984524048ac15bc73288444c8ec93a83219e5ba5fa99f80bf347f7026db0a64736f6c63430008100033",
  "devdoc": {
    "kind": "dev",
    "methods": {
      "DOMAIN_SEPARATOR()": {
        "details": "See {IERC20Permit-DOMAIN_SEPARATOR}."
      },
      "allowance(address,address)": {
        "details": "See {IERC20-allowance}."
      },
      "approve(address,uint256)": {
        "details": "See {IERC20-approve}. NOTE: If `amount` is the maximum `uint256`, the allowance is not updated on `transferFrom`. This is semantically equivalent to an infinite approval. Requirements: - `spender` cannot be the zero address."
      },
      "balanceOf(address)": {
        "details": "See {IERC20-balanceOf}."
      },
      "decimals()": {
        "details": "Returns the number of decimals used to get its user representation. For example, if `decimals` equals `2`, a balance of `505` tokens should be displayed to a user as `5.05` (`505 / 10 ** 2`). Tokens usually opt for a value of 18, imitating the relationship between Ether and Wei. This is the value {ERC20} uses, unless this function is overridden; NOTE: This information is only used for _display_ purposes: it in no way affects any of the arithmetic of the contract, including {IERC20-balanceOf} and {IERC20-transfer}."
      },
      "decreaseAllowance(address,uint256)": {
        "details": "Atomically decreases the allowance granted to `spender` by the caller. This is an alternative to {approve} that can be used as a mitigation for problems described in {IERC20-approve}. Emits an {Approval} event indicating the updated allowance. Requirements: - `spender` cannot be the zero address. - `spender` must have allowance for the caller of at least `subtractedValue`."
      },
      "increaseAllowance(address,uint256)": {
        "details": "Atomically increases the allowance granted to `spender` by the caller. This is an alternative to {approve} that can be used as a mitigation for problems described in {IERC20-approve}. Emits an {Approval} event indicating the updated allowance. Requirements: - `spender` cannot be the zero address."
      },
      "multicall(bytes[])": {
        "details": "Receives and executes a batch of function calls on this contract."
      },
      "name()": {
        "details": "Returns the name of the token."
      },
      "nonces(address)": {
        "details": "See {IERC20Permit-nonces}."
      },
      "permit(address,address,uint256,uint256,uint8,bytes32,bytes32)": {
        "details": "See {IERC20Permit-permit}."
      },
      "symbol()": {
        "details": "Returns the symbol of the token, usually a shorter version of the name."
      },
      "totalSupply()": {
        "details": "See {IERC20-totalSupply}."
      }
    },
    "version": 1
  },
  "userdoc": {
    "kind": "user",
    "methods": {},
    "version": 1
  },
  "storageLayout": {
    "storage": [
      {
        "astId": 925,
        "contract": "contracts/PerpdexLongToken.sol:PerpdexLongToken",
        "label": "_status",
        "offset": 0,
        "slot": "0",
        "type": "t_uint256"
      },
      {
        "astId": 970,
        "contract": "contracts/PerpdexLongToken.sol:PerpdexLongToken",
        "label": "_balances",
        "offset": 0,
        "slot": "1",
        "type": "t_mapping(t_address,t_uint256)"
      },
      {
        "astId": 976,
        "contract": "contracts/PerpdexLongToken.sol:PerpdexLongToken",
        "label": "_allowances",
        "offset": 0,
        "slot": "2",
        "type": "t_mapping(t_address,t_mapping(t_address,t_uint256))"
      },
      {
        "astId": 978,
        "contract": "contracts/PerpdexLongToken.sol:PerpdexLongToken",
        "label": "_totalSupply",
        "offset": 0,
        "slot": "3",
        "type": "t_uint256"
      },
      {
        "astId": 980,
        "contract": "contracts/PerpdexLongToken.sol:PerpdexLongToken",
        "label": "_name",
        "offset": 0,
        "slot": "4",
        "type": "t_string_storage"
      },
      {
        "astId": 982,
        "contract": "contracts/PerpdexLongToken.sol:PerpdexLongToken",
        "label": "_symbol",
        "offset": 0,
        "slot": "5",
        "type": "t_string_storage"
      },
      {
        "astId": 1747,
        "contract": "contracts/PerpdexLongToken.sol:PerpdexLongToken",
        "label": "_nonces",
        "offset": 0,
        "slot": "6",
        "type": "t_mapping(t_address,t_struct(Counter)2672_storage)"
      },
      {
        "astId": 1755,
        "contract": "contracts/PerpdexLongToken.sol:PerpdexLongToken",
        "label": "_PERMIT_TYPEHASH_DEPRECATED_SLOT",
        "offset": 0,
        "slot": "7",
        "type": "t_bytes32"
      }
    ],
    "types": {
      "t_address": {
        "encoding": "inplace",
        "label": "address",
        "numberOfBytes": "20"
      },
      "t_bytes32": {
        "encoding": "inplace",
        "label": "bytes32",
        "numberOfBytes": "32"
      },
      "t_mapping(t_address,t_mapping(t_address,t_uint256))": {
        "encoding": "mapping",
        "key": "t_address",
        "label": "mapping(address => mapping(address => uint256))",
        "numberOfBytes": "32",
        "value": "t_mapping(t_address,t_uint256)"
      },
      "t_mapping(t_address,t_struct(Counter)2672_storage)": {
        "encoding": "mapping",
        "key": "t_address",
        "label": "mapping(address => struct Counters.Counter)",
        "numberOfBytes": "32",
        "value": "t_struct(Counter)2672_storage"
      },
      "t_mapping(t_address,t_uint256)": {
        "encoding": "mapping",
        "key": "t_address",
        "label": "mapping(address => uint256)",
        "numberOfBytes": "32",
        "value": "t_uint256"
      },
      "t_string_storage": {
        "encoding": "bytes",
        "label": "string",
        "numberOfBytes": "32"
      },
      "t_struct(Counter)2672_storage": {
        "encoding": "inplace",
        "label": "struct Counters.Counter",
        "members": [
          {
            "astId": 2671,
            "contract": "contracts/PerpdexLongToken.sol:PerpdexLongToken",
            "label": "_value",
            "offset": 0,
            "slot": "0",
            "type": "t_uint256"
          }
        ],
        "numberOfBytes": "32"
      },
      "t_uint256": {
        "encoding": "inplace",
        "label": "uint256",
        "numberOfBytes": "32"
      }
    }
  }
}